{
  "_format": "hh-sol-artifact-1",
  "contractName": "NewsFeed",
  "sourceName": "contracts/NewsFeed.sol",
  "abi": [
    {
      "inputs": [],
      "stateMutability": "nonpayable",
      "type": "constructor"
    },
    {
      "anonymous": false,
      "inputs": [
        {
          "indexed": false,
          "internalType": "uint256",
          "name": "id",
          "type": "uint256"
        },
        {
          "indexed": false,
          "internalType": "string",
          "name": "title",
          "type": "string"
        },
        {
          "indexed": false,
          "internalType": "string",
          "name": "description",
          "type": "string"
        },
        {
          "indexed": false,
          "internalType": "string",
          "name": "location",
          "type": "string"
        },
        {
          "indexed": false,
          "internalType": "string",
          "name": "category",
          "type": "string"
        },
        {
          "indexed": false,
          "internalType": "string",
          "name": "coverImageHash",
          "type": "string"
        },
        {
          "indexed": false,
          "internalType": "string",
          "name": "date",
          "type": "string"
        },
        {
          "indexed": false,
          "internalType": "address",
          "name": "author",
          "type": "address"
        }
      ],
      "name": "FeedCreated",
      "type": "event"
    },
    {
      "inputs": [
        {
          "internalType": "string",
          "name": "_title",
          "type": "string"
        },
        {
          "internalType": "string",
          "name": "_description",
          "type": "string"
        },
        {
          "internalType": "string",
          "name": "_location",
          "type": "string"
        },
        {
          "internalType": "string",
          "name": "_category",
          "type": "string"
        },
        {
          "internalType": "string",
          "name": "_coverImageHash",
          "type": "string"
        },
        {
          "internalType": "string",
          "name": "_date",
          "type": "string"
        }
      ],
      "name": "createFeed",
      "outputs": [],
      "stateMutability": "nonpayable",
      "type": "function"
    },
    {
      "inputs": [],
      "name": "getAllFeeds",
      "outputs": [
        {
          "components": [
            {
              "internalType": "uint256",
              "name": "id",
              "type": "uint256"
            },
            {
              "internalType": "string",
              "name": "title",
              "type": "string"
            },
            {
              "internalType": "string",
              "name": "description",
              "type": "string"
            },
            {
              "internalType": "string",
              "name": "location",
              "type": "string"
            },
            {
              "internalType": "string",
              "name": "category",
              "type": "string"
            },
            {
              "internalType": "string",
              "name": "coverImageHash",
              "type": "string"
            },
            {
              "internalType": "string",
              "name": "date",
              "type": "string"
            },
            {
              "internalType": "address",
              "name": "author",
              "type": "address"
            }
          ],
          "internalType": "struct NewsFeed.Feed[]",
          "name": "",
          "type": "tuple[]"
        }
      ],
      "stateMutability": "view",
      "type": "function"
    },
    {
      "inputs": [
        {
          "internalType": "uint256",
          "name": "_id",
          "type": "uint256"
        }
      ],
      "name": "getFeed",
      "outputs": [
        {
          "components": [
            {
              "internalType": "uint256",
              "name": "id",
              "type": "uint256"
            },
            {
              "internalType": "string",
              "name": "title",
              "type": "string"
            },
            {
              "internalType": "string",
              "name": "description",
              "type": "string"
            },
            {
              "internalType": "string",
              "name": "location",
              "type": "string"
            },
            {
              "internalType": "string",
              "name": "category",
              "type": "string"
            },
            {
              "internalType": "string",
              "name": "coverImageHash",
              "type": "string"
            },
            {
              "internalType": "string",
              "name": "date",
              "type": "string"
            },
            {
              "internalType": "address",
              "name": "author",
              "type": "address"
            }
          ],
          "internalType": "struct NewsFeed.Feed",
          "name": "",
          "type": "tuple"
        }
      ],
      "stateMutability": "view",
      "type": "function"
    },
    {
      "inputs": [],
      "name": "getTotalFeeds",
      "outputs": [
        {
          "internalType": "uint256",
          "name": "",
          "type": "uint256"
        }
      ],
      "stateMutability": "view",
      "type": "function"
    }
  ],
  "bytecode": "0x60806040523480156200001157600080fd5b506200005d6040518060400160405280601181526020017f4e65777346656564206465706c6f7965640000000000000000000000000000008152506200006360201b62000bb91760201c565b6200025b565b62000103816040516024016200007a9190620001d4565b6040516020818303038152906040527f41304fac000000000000000000000000000000000000000000000000000000007bffffffffffffffffffffffffffffffffffffffffffffffffffffffff19166020820180517bffffffffffffffffffffffffffffffffffffffffffffffffffffffff83818316178352505050506200010660201b60201c565b50565b6200012c81620001276200012f60201b62000c52176200015060201b60201c565b60201c565b50565b60006a636f6e736f6c652e6c6f679050600080835160208501845afa505050565b6200016460201b62000cbc17819050919050565b7f4e487b7100000000000000000000000000000000000000000000000000000000600052605160045260246000fd5b6000620001a082620001f8565b620001ac818562000203565b9350620001be81856020860162000214565b620001c9816200024a565b840191505092915050565b60006020820190508181036000830152620001f0818462000193565b905092915050565b600081519050919050565b600082825260208201905092915050565b60005b838110156200023457808201518184015260208101905062000217565b8381111562000244576000848401525b50505050565b6000601f19601f8301169050919050565b61167f806200026b6000396000f3fe608060405234801561001057600080fd5b506004361061004c5760003560e01c8063128767981461005157806377641b551461006f5780639f59e5931461008d578063ecb76d90146100a9575b600080fd5b6100596100d9565b6040516100669190611285565b60405180910390f35b610077610505565b60405161008491906112eb565b60405180910390f35b6100a760048036038101906100a29190610e66565b61050e565b005b6100c360048036038101906100be9190610f7f565b61078a565b6040516100d091906112c9565b60405180910390f35b60606002805480602002602001604051908101604052809291908181526020016000905b828210156104fc5783829060005260206000209060080201604051806101000160405290816000820154815260200160018201805461013b906114e8565b80601f0160208091040260200160405190810160405280929190818152602001828054610167906114e8565b80156101b45780601f10610189576101008083540402835291602001916101b4565b820191906000526020600020905b81548152906001019060200180831161019757829003601f168201915b505050505081526020016002820180546101cd906114e8565b80601f01602080910402602001604051908101604052809291908181526020018280546101f9906114e8565b80156102465780601f1061021b57610100808354040283529160200191610246565b820191906000526020600020905b81548152906001019060200180831161022957829003601f168201915b5050505050815260200160038201805461025f906114e8565b80601f016020809104026020016040519081016040528092919081815260200182805461028b906114e8565b80156102d85780601f106102ad576101008083540402835291602001916102d8565b820191906000526020600020905b8154815290600101906020018083116102bb57829003601f168201915b505050505081526020016004820180546102f1906114e8565b80601f016020809104026020016040519081016040528092919081815260200182805461031d906114e8565b801561036a5780601f1061033f5761010080835404028352916020019161036a565b820191906000526020600020905b81548152906001019060200180831161034d57829003601f168201915b50505050508152602001600582018054610383906114e8565b80601f01602080910402602001604051908101604052809291908181526020018280546103af906114e8565b80156103fc5780601f106103d1576101008083540402835291602001916103fc565b820191906000526020600020905b8154815290600101906020018083116103df57829003601f168201915b50505050508152602001600682018054610415906114e8565b80601f0160208091040260200160405190810160405280929190818152602001828054610441906114e8565b801561048e5780601f106104635761010080835404028352916020019161048e565b820191906000526020600020905b81548152906001019060200180831161047157829003601f168201915b505050505081526020016007820160009054906101000a900473ffffffffffffffffffffffffffffffffffffffff1673ffffffffffffffffffffffffffffffffffffffff1673ffffffffffffffffffffffffffffffffffffffff1681525050815260200190600101906100fd565b50505050905090565b60008054905090565b600082511161051c57600080fd5b600086511161052a57600080fd5b600085511161053857600080fd5b600084511161054657600080fd5b600083511161055457600080fd5b600073ffffffffffffffffffffffffffffffffffffffff163373ffffffffffffffffffffffffffffffffffffffff16141561058e57600080fd5b6000808154809291906105a09061154b565b91905055506105af6001610c73565b60026040518061010001604052806105c76001610c89565b81526020018881526020018781526020018681526020018581526020018481526020018381526020013373ffffffffffffffffffffffffffffffffffffffff168152509080600181540180825580915050600190039060005260206000209060080201600090919091909150600082015181600001556020820151816001019080519060200190610659929190610ceb565b506040820151816002019080519060200190610676929190610ceb565b506060820151816003019080519060200190610693929190610ceb565b5060808201518160040190805190602001906106b0929190610ceb565b5060a08201518160050190805190602001906106cd929190610ceb565b5060c08201518160060190805190602001906106ea929190610ceb565b5060e08201518160070160006101000a81548173ffffffffffffffffffffffffffffffffffffffff021916908373ffffffffffffffffffffffffffffffffffffffff16021790555050507f7bf4c46102542cfa33479ac8707f89e1089966f223d6bd0994c33992a94c794061075f6001610c89565b8787878787873360405161077a989796959493929190611306565b60405180910390a1505050505050565b610792610d71565b600282815481106107cc577f4e487b7100000000000000000000000000000000000000000000000000000000600052603260045260246000fd5b90600052602060002090600802016040518061010001604052908160008201548152602001600182018054610800906114e8565b80601f016020809104026020016040519081016040528092919081815260200182805461082c906114e8565b80156108795780601f1061084e57610100808354040283529160200191610879565b820191906000526020600020905b81548152906001019060200180831161085c57829003601f168201915b50505050508152602001600282018054610892906114e8565b80601f01602080910402602001604051908101604052809291908181526020018280546108be906114e8565b801561090b5780601f106108e05761010080835404028352916020019161090b565b820191906000526020600020905b8154815290600101906020018083116108ee57829003601f168201915b50505050508152602001600382018054610924906114e8565b80601f0160208091040260200160405190810160405280929190818152602001828054610950906114e8565b801561099d5780601f106109725761010080835404028352916020019161099d565b820191906000526020600020905b81548152906001019060200180831161098057829003601f168201915b505050505081526020016004820180546109b6906114e8565b80601f01602080910402602001604051908101604052809291908181526020018280546109e2906114e8565b8015610a2f5780601f10610a0457610100808354040283529160200191610a2f565b820191906000526020600020905b815481529060010190602001808311610a1257829003601f168201915b50505050508152602001600582018054610a48906114e8565b80601f0160208091040260200160405190810160405280929190818152602001828054610a74906114e8565b8015610ac15780601f10610a9657610100808354040283529160200191610ac1565b820191906000526020600020905b815481529060010190602001808311610aa457829003601f168201915b50505050508152602001600682018054610ada906114e8565b80601f0160208091040260200160405190810160405280929190818152602001828054610b06906114e8565b8015610b535780601f10610b2857610100808354040283529160200191610b53565b820191906000526020600020905b815481529060010190602001808311610b3657829003601f168201915b505050505081526020016007820160009054906101000a900473ffffffffffffffffffffffffffffffffffffffff1673ffffffffffffffffffffffffffffffffffffffff1673ffffffffffffffffffffffffffffffffffffffff16815250509050919050565b610c4f81604051602401610bcd91906112a7565b6040516020818303038152906040527f41304fac000000000000000000000000000000000000000000000000000000007bffffffffffffffffffffffffffffffffffffffffffffffffffffffff19166020820180517bffffffffffffffffffffffffffffffffffffffffffffffffffffffff8381831617835250505050610c97565b50565b60006a636f6e736f6c652e6c6f679050600080835160208501845afa505050565b6001816000016000828254019250508190555050565b600081600001549050919050565b610cae81610ca6610c52610cb1565b63ffffffff16565b50565b610cbc819050919050565b7f4e487b7100000000000000000000000000000000000000000000000000000000600052605160045260246000fd5b828054610cf7906114e8565b90600052602060002090601f016020900481019282610d195760008555610d60565b82601f10610d3257805160ff1916838001178555610d60565b82800160010185558215610d60579182015b82811115610d5f578251825591602001919060010190610d44565b5b509050610d6d9190610dcc565b5090565b60405180610100016040528060008152602001606081526020016060815260200160608152602001606081526020016060815260200160608152602001600073ffffffffffffffffffffffffffffffffffffffff1681525090565b5b80821115610de5576000816000905550600101610dcd565b5090565b6000610dfc610df7846113d3565b6113ae565b905082815260208101848484011115610e1457600080fd5b610e1f8482856114a6565b509392505050565b600082601f830112610e3857600080fd5b8135610e48848260208601610de9565b91505092915050565b600081359050610e6081611632565b92915050565b60008060008060008060c08789031215610e7f57600080fd5b600087013567ffffffffffffffff811115610e9957600080fd5b610ea589828a01610e27565b965050602087013567ffffffffffffffff811115610ec257600080fd5b610ece89828a01610e27565b955050604087013567ffffffffffffffff811115610eeb57600080fd5b610ef789828a01610e27565b945050606087013567ffffffffffffffff811115610f1457600080fd5b610f2089828a01610e27565b935050608087013567ffffffffffffffff811115610f3d57600080fd5b610f4989828a01610e27565b92505060a087013567ffffffffffffffff811115610f6657600080fd5b610f7289828a01610e27565b9150509295509295509295565b600060208284031215610f9157600080fd5b6000610f9f84828501610e51565b91505092915050565b6000610fb483836110c1565b905092915050565b610fc58161146a565b82525050565b610fd48161146a565b82525050565b6000610fe582611414565b610fef8185611437565b93508360208202850161100185611404565b8060005b8581101561103d578484038952815161101e8582610fa8565b94506110298361142a565b925060208a01995050600181019050611005565b50829750879550505050505092915050565b600061105a8261141f565b6110648185611448565b93506110748185602086016114b5565b61107d81611621565b840191505092915050565b60006110938261141f565b61109d8185611459565b93506110ad8185602086016114b5565b6110b681611621565b840191505092915050565b6000610100830160008301516110da6000860182611267565b50602083015184820360208601526110f2828261104f565b9150506040830151848203604086015261110c828261104f565b91505060608301518482036060860152611126828261104f565b91505060808301518482036080860152611140828261104f565b91505060a083015184820360a086015261115a828261104f565b91505060c083015184820360c0860152611174828261104f565b91505060e083015161118960e0860182610fbc565b508091505092915050565b6000610100830160008301516111ad6000860182611267565b50602083015184820360208601526111c5828261104f565b915050604083015184820360408601526111df828261104f565b915050606083015184820360608601526111f9828261104f565b91505060808301518482036080860152611213828261104f565b91505060a083015184820360a086015261122d828261104f565b91505060c083015184820360c0860152611247828261104f565b91505060e083015161125c60e0860182610fbc565b508091505092915050565b6112708161149c565b82525050565b61127f8161149c565b82525050565b6000602082019050818103600083015261129f8184610fda565b905092915050565b600060208201905081810360008301526112c18184611088565b905092915050565b600060208201905081810360008301526112e38184611194565b905092915050565b60006020820190506113006000830184611276565b92915050565b60006101008201905061131c600083018b611276565b818103602083015261132e818a611088565b905081810360408301526113428189611088565b905081810360608301526113568188611088565b9050818103608083015261136a8187611088565b905081810360a083015261137e8186611088565b905081810360c08301526113928185611088565b90506113a160e0830184610fcb565b9998505050505050505050565b60006113b86113c9565b90506113c4828261151a565b919050565b6000604051905090565b600067ffffffffffffffff8211156113ee576113ed6115f2565b5b6113f782611621565b9050602081019050919050565b6000819050602082019050919050565b600081519050919050565b600081519050919050565b6000602082019050919050565b600082825260208201905092915050565b600082825260208201905092915050565b600082825260208201905092915050565b60006114758261147c565b9050919050565b600073ffffffffffffffffffffffffffffffffffffffff82169050919050565b6000819050919050565b82818337600083830152505050565b60005b838110156114d35780820151818401526020810190506114b8565b838111156114e2576000848401525b50505050565b6000600282049050600182168061150057607f821691505b60208210811415611514576115136115c3565b5b50919050565b61152382611621565b810181811067ffffffffffffffff82111715611542576115416115f2565b5b80604052505050565b60006115568261149c565b91507fffffffffffffffffffffffffffffffffffffffffffffffffffffffffffffffff82141561158957611588611594565b5b600182019050919050565b7f4e487b7100000000000000000000000000000000000000000000000000000000600052601160045260246000fd5b7f4e487b7100000000000000000000000000000000000000000000000000000000600052602260045260246000fd5b7f4e487b7100000000000000000000000000000000000000000000000000000000600052604160045260246000fd5b6000601f19601f8301169050919050565b61163b8161149c565b811461164657600080fd5b5056fea2646970667358221220627384d59f444c22543e6d3042ec9e1008d5009558e69ab5486c54be21dfec4064736f6c63430008040033",
  "linkReferences": {},
  "deployedLinkReferences": {}
}